{
  "_format": "hh3-artifact-1",
  "contractName": "MyNFT",
  "sourceName": "contracts/token.sol",
  "abi": [
    {
      "inputs": [],
      "stateMutability": "nonpayable",
      "type": "constructor"
    },
    {
      "inputs": [
        {
          "internalType": "address",
          "name": "sender",
          "type": "address"
        },
        {
          "internalType": "uint256",
          "name": "tokenId",
          "type": "uint256"
        },
        {
          "internalType": "address",
          "name": "owner",
          "type": "address"
        }
      ],
      "name": "ERC721IncorrectOwner",
      "type": "error"
    },
    {
      "inputs": [
        {
          "internalType": "address",
          "name": "operator",
          "type": "address"
        },
        {
          "internalType": "uint256",
          "name": "tokenId",
          "type": "uint256"
        }
      ],
      "name": "ERC721InsufficientApproval",
      "type": "error"
    },
    {
      "inputs": [
        {
          "internalType": "address",
          "name": "approver",
          "type": "address"
        }
      ],
      "name": "ERC721InvalidApprover",
      "type": "error"
    },
    {
      "inputs": [
        {
          "internalType": "address",
          "name": "operator",
          "type": "address"
        }
      ],
      "name": "ERC721InvalidOperator",
      "type": "error"
    },
    {
      "inputs": [
        {
          "internalType": "address",
          "name": "owner",
          "type": "address"
        }
      ],
      "name": "ERC721InvalidOwner",
      "type": "error"
    },
    {
      "inputs": [
        {
          "internalType": "address",
          "name": "receiver",
          "type": "address"
        }
      ],
      "name": "ERC721InvalidReceiver",
      "type": "error"
    },
    {
      "inputs": [
        {
          "internalType": "address",
          "name": "sender",
          "type": "address"
        }
      ],
      "name": "ERC721InvalidSender",
      "type": "error"
    },
    {
      "inputs": [
        {
          "internalType": "uint256",
          "name": "tokenId",
          "type": "uint256"
        }
      ],
      "name": "ERC721NonexistentToken",
      "type": "error"
    },
    {
      "inputs": [
        {
          "internalType": "address",
          "name": "owner",
          "type": "address"
        }
      ],
      "name": "OwnableInvalidOwner",
      "type": "error"
    },
    {
      "inputs": [
        {
          "internalType": "address",
          "name": "account",
          "type": "address"
        }
      ],
      "name": "OwnableUnauthorizedAccount",
      "type": "error"
    },
    {
      "anonymous": false,
      "inputs": [
        {
          "indexed": true,
          "internalType": "address",
          "name": "owner",
          "type": "address"
        },
        {
          "indexed": true,
          "internalType": "address",
          "name": "approved",
          "type": "address"
        },
        {
          "indexed": true,
          "internalType": "uint256",
          "name": "tokenId",
          "type": "uint256"
        }
      ],
      "name": "Approval",
      "type": "event"
    },
    {
      "anonymous": false,
      "inputs": [
        {
          "indexed": true,
          "internalType": "address",
          "name": "owner",
          "type": "address"
        },
        {
          "indexed": true,
          "internalType": "address",
          "name": "operator",
          "type": "address"
        },
        {
          "indexed": false,
          "internalType": "bool",
          "name": "approved",
          "type": "bool"
        }
      ],
      "name": "ApprovalForAll",
      "type": "event"
    },
    {
      "anonymous": false,
      "inputs": [
        {
          "indexed": true,
          "internalType": "address",
          "name": "previousOwner",
          "type": "address"
        },
        {
          "indexed": true,
          "internalType": "address",
          "name": "newOwner",
          "type": "address"
        }
      ],
      "name": "OwnershipTransferred",
      "type": "event"
    },
    {
      "anonymous": false,
      "inputs": [
        {
          "indexed": true,
          "internalType": "address",
          "name": "from",
          "type": "address"
        },
        {
          "indexed": true,
          "internalType": "address",
          "name": "to",
          "type": "address"
        },
        {
          "indexed": true,
          "internalType": "uint256",
          "name": "tokenId",
          "type": "uint256"
        }
      ],
      "name": "Transfer",
      "type": "event"
    },
    {
      "inputs": [
        {
          "internalType": "address",
          "name": "to",
          "type": "address"
        },
        {
          "internalType": "uint256",
          "name": "tokenId",
          "type": "uint256"
        }
      ],
      "name": "approve",
      "outputs": [],
      "stateMutability": "nonpayable",
      "type": "function"
    },
    {
      "inputs": [
        {
          "internalType": "address",
          "name": "owner",
          "type": "address"
        }
      ],
      "name": "balanceOf",
      "outputs": [
        {
          "internalType": "uint256",
          "name": "",
          "type": "uint256"
        }
      ],
      "stateMutability": "view",
      "type": "function"
    },
    {
      "inputs": [
        {
          "internalType": "uint256",
          "name": "tokenId",
          "type": "uint256"
        }
      ],
      "name": "getApproved",
      "outputs": [
        {
          "internalType": "address",
          "name": "",
          "type": "address"
        }
      ],
      "stateMutability": "view",
      "type": "function"
    },
    {
      "inputs": [
        {
          "internalType": "address",
          "name": "owner",
          "type": "address"
        },
        {
          "internalType": "address",
          "name": "operator",
          "type": "address"
        }
      ],
      "name": "isApprovedForAll",
      "outputs": [
        {
          "internalType": "bool",
          "name": "",
          "type": "bool"
        }
      ],
      "stateMutability": "view",
      "type": "function"
    },
    {
      "inputs": [
        {
          "internalType": "address",
          "name": "to",
          "type": "address"
        }
      ],
      "name": "mint",
      "outputs": [],
      "stateMutability": "nonpayable",
      "type": "function"
    },
    {
      "inputs": [],
      "name": "name",
      "outputs": [
        {
          "internalType": "string",
          "name": "",
          "type": "string"
        }
      ],
      "stateMutability": "view",
      "type": "function"
    },
    {
      "inputs": [],
      "name": "nextTokenId",
      "outputs": [
        {
          "internalType": "uint256",
          "name": "",
          "type": "uint256"
        }
      ],
      "stateMutability": "view",
      "type": "function"
    },
    {
      "inputs": [],
      "name": "owner",
      "outputs": [
        {
          "internalType": "address",
          "name": "",
          "type": "address"
        }
      ],
      "stateMutability": "view",
      "type": "function"
    },
    {
      "inputs": [
        {
          "internalType": "uint256",
          "name": "tokenId",
          "type": "uint256"
        }
      ],
      "name": "ownerOf",
      "outputs": [
        {
          "internalType": "address",
          "name": "",
          "type": "address"
        }
      ],
      "stateMutability": "view",
      "type": "function"
    },
    {
      "inputs": [],
      "name": "renounceOwnership",
      "outputs": [],
      "stateMutability": "nonpayable",
      "type": "function"
    },
    {
      "inputs": [
        {
          "internalType": "address",
          "name": "from",
          "type": "address"
        },
        {
          "internalType": "address",
          "name": "to",
          "type": "address"
        },
        {
          "internalType": "uint256",
          "name": "tokenId",
          "type": "uint256"
        }
      ],
      "name": "safeTransferFrom",
      "outputs": [],
      "stateMutability": "nonpayable",
      "type": "function"
    },
    {
      "inputs": [
        {
          "internalType": "address",
          "name": "from",
          "type": "address"
        },
        {
          "internalType": "address",
          "name": "to",
          "type": "address"
        },
        {
          "internalType": "uint256",
          "name": "tokenId",
          "type": "uint256"
        },
        {
          "internalType": "bytes",
          "name": "data",
          "type": "bytes"
        }
      ],
      "name": "safeTransferFrom",
      "outputs": [],
      "stateMutability": "nonpayable",
      "type": "function"
    },
    {
      "inputs": [
        {
          "internalType": "address",
          "name": "operator",
          "type": "address"
        },
        {
          "internalType": "bool",
          "name": "approved",
          "type": "bool"
        }
      ],
      "name": "setApprovalForAll",
      "outputs": [],
      "stateMutability": "nonpayable",
      "type": "function"
    },
    {
      "inputs": [
        {
          "internalType": "bytes4",
          "name": "interfaceId",
          "type": "bytes4"
        }
      ],
      "name": "supportsInterface",
      "outputs": [
        {
          "internalType": "bool",
          "name": "",
          "type": "bool"
        }
      ],
      "stateMutability": "view",
      "type": "function"
    },
    {
      "inputs": [],
      "name": "symbol",
      "outputs": [
        {
          "internalType": "string",
          "name": "",
          "type": "string"
        }
      ],
      "stateMutability": "view",
      "type": "function"
    },
    {
      "inputs": [
        {
          "internalType": "uint256",
          "name": "tokenId",
          "type": "uint256"
        }
      ],
      "name": "tokenURI",
      "outputs": [
        {
          "internalType": "string",
          "name": "",
          "type": "string"
        }
      ],
      "stateMutability": "view",
      "type": "function"
    },
    {
      "inputs": [
        {
          "internalType": "address",
          "name": "from",
          "type": "address"
        },
        {
          "internalType": "address",
          "name": "to",
          "type": "address"
        },
        {
          "internalType": "uint256",
          "name": "tokenId",
          "type": "uint256"
        }
      ],
      "name": "transferFrom",
      "outputs": [],
      "stateMutability": "nonpayable",
      "type": "function"
    },
    {
      "inputs": [
        {
          "internalType": "address",
          "name": "newOwner",
          "type": "address"
        }
      ],
      "name": "transferOwnership",
      "outputs": [],
      "stateMutability": "nonpayable",
      "type": "function"
    }
  ],
  "bytecode": "0x608060405234801561000f575f5ffd5b503360405180604001604052806005815260200164135e53919560da1b815250604051806040016040528060048152602001631353919560e21b815250815f908161005a919061018f565b506001610067828261018f565b5050506001600160a01b03811661009757604051631e4fbdf760e01b81525f600482015260240160405180910390fd5b6100a0816100a6565b50610249565b600680546001600160a01b038381166001600160a01b0319831681179093556040519116919082907f8be0079c531659141344cd1fd0a4f28419497f9722a3daafe3b4186f6b6457e0905f90a35050565b634e487b7160e01b5f52604160045260245ffd5b600181811c9082168061011f57607f821691505b60208210810361013d57634e487b7160e01b5f52602260045260245ffd5b50919050565b601f82111561018a57805f5260205f20601f840160051c810160208510156101685750805b601f840160051c820191505b81811015610187575f8155600101610174565b50505b505050565b81516001600160401b038111156101a8576101a86100f7565b6101bc816101b6845461010b565b84610143565b6020601f8211600181146101ee575f83156101d75750848201515b5f19600385901b1c1916600184901b178455610187565b5f84815260208120601f198516915b8281101561021d57878501518255602094850194600190920191016101fd565b508482101561023a57868401515f19600387901b60f8161c191681555b50505050600190811b01905550565b6110b0806102565f395ff3fe608060405234801561000f575f5ffd5b5060043610610111575f3560e01c8063715018a61161009e578063a22cb4651161006e578063a22cb46514610229578063b88d4fde1461023c578063c87b56dd1461024f578063e985e9c514610262578063f2fde38b14610275575f5ffd5b8063715018a6146101ff57806375794a3c146102075780638da5cb5b1461021057806395d89b4114610221575f5ffd5b806323b872dd116100e457806323b872dd1461019257806342842e0e146101a55780636352211e146101b85780636a627842146101cb57806370a08231146101de575f5ffd5b806301ffc9a71461011557806306fdde031461013d578063081812fc14610152578063095ea7b31461017d575b5f5ffd5b610128610123366004610d39565b610288565b60405190151581526020015b60405180910390f35b6101456102d9565b6040516101349190610d82565b610165610160366004610d94565b610368565b6040516001600160a01b039091168152602001610134565b61019061018b366004610dc6565b61038f565b005b6101906101a0366004610dee565b61039e565b6101906101b3366004610dee565b61042c565b6101656101c6366004610d94565b61044b565b6101906101d9366004610e28565b610455565b6101f16101ec366004610e28565b610480565b604051908152602001610134565b6101906104c5565b6101f160075481565b6006546001600160a01b0316610165565b6101456104d8565b610190610237366004610e41565b6104e7565b61019061024a366004610e8e565b6104f2565b61014561025d366004610d94565b61050a565b610128610270366004610f6b565b61057b565b610190610283366004610e28565b6105a8565b5f6001600160e01b031982166380ac58cd60e01b14806102b857506001600160e01b03198216635b5e139f60e01b145b806102d357506301ffc9a760e01b6001600160e01b03198316145b92915050565b60605f80546102e790610f9c565b80601f016020809104026020016040519081016040528092919081815260200182805461031390610f9c565b801561035e5780601f106103355761010080835404028352916020019161035e565b820191905f5260205f20905b81548152906001019060200180831161034157829003601f168201915b5050505050905090565b5f610372826105e5565b505f828152600460205260409020546001600160a01b03166102d3565b61039a82823361061d565b5050565b6001600160a01b0382166103cc57604051633250574960e11b81525f60048201526024015b60405180910390fd5b5f6103d883833361062a565b9050836001600160a01b0316816001600160a01b031614610426576040516364283d7b60e01b81526001600160a01b03808616600483015260248201849052821660448201526064016103c3565b50505050565b61044683838360405180602001604052805f8152506104f2565b505050565b5f6102d3826105e5565b61045d61071c565b61046981600754610749565b60078054905f61047883610fd4565b919050555050565b5f6001600160a01b0382166104aa576040516322718ad960e21b81525f60048201526024016103c3565b506001600160a01b03165f9081526003602052604090205490565b6104cd61071c565b6104d65f610762565b565b6060600180546102e790610f9c565b61039a3383836107b3565b6104fd84848461039e565b6104263385858585610851565b6060610515826105e5565b505f61052b60408051602081019091525f815290565b90505f8151116105495760405180602001604052805f815250610574565b8061055384610979565b60405160200161056492919061100f565b6040516020818303038152906040525b9392505050565b6001600160a01b039182165f90815260056020908152604080832093909416825291909152205460ff1690565b6105b061071c565b6001600160a01b0381166105d957604051631e4fbdf760e01b81525f60048201526024016103c3565b6105e281610762565b50565b5f818152600260205260408120546001600160a01b0316806102d357604051637e27328960e01b8152600481018490526024016103c3565b6104468383836001610a09565b5f828152600260205260408120546001600160a01b039081169083161561065657610656818486610b0d565b6001600160a01b03811615610690576106715f855f5f610a09565b6001600160a01b0381165f90815260036020526040902080545f190190555b6001600160a01b038516156106be576001600160a01b0385165f908152600360205260409020805460010190555b5f8481526002602052604080822080546001600160a01b0319166001600160a01b0389811691821790925591518793918516917fddf252ad1be2c89b69c2b068fc378daa952ba7f163c4a11628f55a4df523b3ef91a4949350505050565b6006546001600160a01b031633146104d65760405163118cdaa760e01b81523360048201526024016103c3565b61039a828260405180602001604052805f815250610b71565b600680546001600160a01b038381166001600160a01b0319831681179093556040519116919082907f8be0079c531659141344cd1fd0a4f28419497f9722a3daafe3b4186f6b6457e0905f90a35050565b6001600160a01b0382166107e557604051630b61174360e31b81526001600160a01b03831660048201526024016103c3565b6001600160a01b038381165f81815260056020908152604080832094871680845294825291829020805460ff191686151590811790915591519182527f17307eab39ab6107e8899845ad3d59bd9653f200f220920489ca2b5937696c31910160405180910390a3505050565b6001600160a01b0383163b1561097257604051630a85bd0160e11b81526001600160a01b0384169063150b7a0290610893908890889087908790600401611023565b6020604051808303815f875af19250505080156108cd575060408051601f3d908101601f191682019092526108ca9181019061105f565b60015b610934573d8080156108fa576040519150601f19603f3d011682016040523d82523d5f602084013e6108ff565b606091505b5080515f0361092c57604051633250574960e11b81526001600160a01b03851660048201526024016103c3565b805160208201fd5b6001600160e01b03198116630a85bd0160e11b1461097057604051633250574960e11b81526001600160a01b03851660048201526024016103c3565b505b5050505050565b60605f61098583610b88565b60010190505f8167ffffffffffffffff8111156109a4576109a4610e7a565b6040519080825280601f01601f1916602001820160405280156109ce576020820181803683370190505b5090508181016020015b5f19016f181899199a1a9b1b9c1cb0b131b232b360811b600a86061a8153600a85049450846109d857509392505050565b8080610a1d57506001600160a01b03821615155b15610ade575f610a2c846105e5565b90506001600160a01b03831615801590610a585750826001600160a01b0316816001600160a01b031614155b8015610a6b5750610a69818461057b565b155b15610a945760405163a9fbf51f60e01b81526001600160a01b03841660048201526024016103c3565b8115610adc5783856001600160a01b0316826001600160a01b03167f8c5be1e5ebec7d5bd14f71427d1e84f3dd0314c0f7b2291e5b200ac8c7c3b92560405160405180910390a45b505b50505f90815260046020526040902080546001600160a01b0319166001600160a01b0392909216919091179055565b610b18838383610c5f565b610446576001600160a01b038316610b4657604051637e27328960e01b8152600481018290526024016103c3565b60405163177e802f60e01b81526001600160a01b0383166004820152602481018290526044016103c3565b610b7b8383610cc3565b610446335f858585610851565b5f8072184f03e93ff9f4daa797ed6e38ed64bf6a1f0160401b8310610bc65772184f03e93ff9f4daa797ed6e38ed64bf6a1f0160401b830492506040015b6d04ee2d6d415b85acef81000000008310610bf2576d04ee2d6d415b85acef8100000000830492506020015b662386f26fc100008310610c1057662386f26fc10000830492506010015b6305f5e1008310610c28576305f5e100830492506008015b6127108310610c3c57612710830492506004015b60648310610c4e576064830492506002015b600a83106102d35760010192915050565b5f6001600160a01b03831615801590610cbb5750826001600160a01b0316846001600160a01b03161480610c985750610c98848461057b565b80610cbb57505f828152600460205260409020546001600160a01b038481169116145b949350505050565b6001600160a01b038216610cec57604051633250574960e11b81525f60048201526024016103c3565b5f610cf883835f61062a565b90506001600160a01b03811615610446576040516339e3563760e11b81525f60048201526024016103c3565b6001600160e01b0319811681146105e2575f5ffd5b5f60208284031215610d49575f5ffd5b813561057481610d24565b5f81518084528060208401602086015e5f602082860101526020601f19601f83011685010191505092915050565b602081525f6105746020830184610d54565b5f60208284031215610da4575f5ffd5b5035919050565b80356001600160a01b0381168114610dc1575f5ffd5b919050565b5f5f60408385031215610dd7575f5ffd5b610de083610dab565b946020939093013593505050565b5f5f5f60608486031215610e00575f5ffd5b610e0984610dab565b9250610e1760208501610dab565b929592945050506040919091013590565b5f60208284031215610e38575f5ffd5b61057482610dab565b5f5f60408385031215610e52575f5ffd5b610e5b83610dab565b915060208301358015158114610e6f575f5ffd5b809150509250929050565b634e487b7160e01b5f52604160045260245ffd5b5f5f5f5f60808587031215610ea1575f5ffd5b610eaa85610dab565b9350610eb860208601610dab565b925060408501359150606085013567ffffffffffffffff811115610eda575f5ffd5b8501601f81018713610eea575f5ffd5b803567ffffffffffffffff811115610f0457610f04610e7a565b604051601f8201601f19908116603f0116810167ffffffffffffffff81118282101715610f3357610f33610e7a565b604052818152828201602001891015610f4a575f5ffd5b816020840160208301375f6020838301015280935050505092959194509250565b5f5f60408385031215610f7c575f5ffd5b610f8583610dab565b9150610f9360208401610dab565b90509250929050565b600181811c90821680610fb057607f821691505b602082108103610fce57634e487b7160e01b5f52602260045260245ffd5b50919050565b5f60018201610ff157634e487b7160e01b5f52601160045260245ffd5b5060010190565b5f81518060208401855e5f93019283525090919050565b5f610cbb61101d8386610ff8565b84610ff8565b6001600160a01b03858116825284166020820152604081018390526080606082018190525f9061105590830184610d54565b9695505050505050565b5f6020828403121561106f575f5ffd5b815161057481610d2456fea2646970667358221220524ed7cee59bfbf60d4e4e34174241c1dd2eb8dcf7c18527aa629e4e9a78bbf064736f6c634300081c0033",
  "linkReferences": {},
  "deployedLinkReferences": {},
  "immutableReferences": {},
  "inputSourceName": "project/contracts/token.sol",
  "buildInfoId": "solc-0_8_28-120994c649d90a74d2614d7cb276f906ad115caf"
}