{
  "_format": "hh3-artifact-1",
  "contractName": "AngeloNFT",
  "sourceName": "contracts/token.sol",
  "abi": [
    {
      "inputs": [],
      "stateMutability": "nonpayable",
      "type": "constructor"
    },
    {
      "inputs": [
        {
          "internalType": "address",
          "name": "sender",
          "type": "address"
        },
        {
          "internalType": "uint256",
          "name": "tokenId",
          "type": "uint256"
        },
        {
          "internalType": "address",
          "name": "owner",
          "type": "address"
        }
      ],
      "name": "ERC721IncorrectOwner",
      "type": "error"
    },
    {
      "inputs": [
        {
          "internalType": "address",
          "name": "operator",
          "type": "address"
        },
        {
          "internalType": "uint256",
          "name": "tokenId",
          "type": "uint256"
        }
      ],
      "name": "ERC721InsufficientApproval",
      "type": "error"
    },
    {
      "inputs": [
        {
          "internalType": "address",
          "name": "approver",
          "type": "address"
        }
      ],
      "name": "ERC721InvalidApprover",
      "type": "error"
    },
    {
      "inputs": [
        {
          "internalType": "address",
          "name": "operator",
          "type": "address"
        }
      ],
      "name": "ERC721InvalidOperator",
      "type": "error"
    },
    {
      "inputs": [
        {
          "internalType": "address",
          "name": "owner",
          "type": "address"
        }
      ],
      "name": "ERC721InvalidOwner",
      "type": "error"
    },
    {
      "inputs": [
        {
          "internalType": "address",
          "name": "receiver",
          "type": "address"
        }
      ],
      "name": "ERC721InvalidReceiver",
      "type": "error"
    },
    {
      "inputs": [
        {
          "internalType": "address",
          "name": "sender",
          "type": "address"
        }
      ],
      "name": "ERC721InvalidSender",
      "type": "error"
    },
    {
      "inputs": [
        {
          "internalType": "uint256",
          "name": "tokenId",
          "type": "uint256"
        }
      ],
      "name": "ERC721NonexistentToken",
      "type": "error"
    },
    {
      "inputs": [
        {
          "internalType": "address",
          "name": "owner",
          "type": "address"
        }
      ],
      "name": "OwnableInvalidOwner",
      "type": "error"
    },
    {
      "inputs": [
        {
          "internalType": "address",
          "name": "account",
          "type": "address"
        }
      ],
      "name": "OwnableUnauthorizedAccount",
      "type": "error"
    },
    {
      "anonymous": false,
      "inputs": [
        {
          "indexed": true,
          "internalType": "address",
          "name": "owner",
          "type": "address"
        },
        {
          "indexed": true,
          "internalType": "address",
          "name": "approved",
          "type": "address"
        },
        {
          "indexed": true,
          "internalType": "uint256",
          "name": "tokenId",
          "type": "uint256"
        }
      ],
      "name": "Approval",
      "type": "event"
    },
    {
      "anonymous": false,
      "inputs": [
        {
          "indexed": true,
          "internalType": "address",
          "name": "owner",
          "type": "address"
        },
        {
          "indexed": true,
          "internalType": "address",
          "name": "operator",
          "type": "address"
        },
        {
          "indexed": false,
          "internalType": "bool",
          "name": "approved",
          "type": "bool"
        }
      ],
      "name": "ApprovalForAll",
      "type": "event"
    },
    {
      "anonymous": false,
      "inputs": [
        {
          "indexed": true,
          "internalType": "address",
          "name": "previousOwner",
          "type": "address"
        },
        {
          "indexed": true,
          "internalType": "address",
          "name": "newOwner",
          "type": "address"
        }
      ],
      "name": "OwnershipTransferred",
      "type": "event"
    },
    {
      "anonymous": false,
      "inputs": [
        {
          "indexed": true,
          "internalType": "address",
          "name": "from",
          "type": "address"
        },
        {
          "indexed": true,
          "internalType": "address",
          "name": "to",
          "type": "address"
        },
        {
          "indexed": true,
          "internalType": "uint256",
          "name": "tokenId",
          "type": "uint256"
        }
      ],
      "name": "Transfer",
      "type": "event"
    },
    {
      "inputs": [
        {
          "internalType": "address",
          "name": "to",
          "type": "address"
        },
        {
          "internalType": "uint256",
          "name": "tokenId",
          "type": "uint256"
        }
      ],
      "name": "approve",
      "outputs": [],
      "stateMutability": "nonpayable",
      "type": "function"
    },
    {
      "inputs": [
        {
          "internalType": "address",
          "name": "owner",
          "type": "address"
        }
      ],
      "name": "balanceOf",
      "outputs": [
        {
          "internalType": "uint256",
          "name": "",
          "type": "uint256"
        }
      ],
      "stateMutability": "view",
      "type": "function"
    },
    {
      "inputs": [
        {
          "internalType": "uint256",
          "name": "tokenId",
          "type": "uint256"
        }
      ],
      "name": "getApproved",
      "outputs": [
        {
          "internalType": "address",
          "name": "",
          "type": "address"
        }
      ],
      "stateMutability": "view",
      "type": "function"
    },
    {
      "inputs": [
        {
          "internalType": "address",
          "name": "owner",
          "type": "address"
        },
        {
          "internalType": "address",
          "name": "operator",
          "type": "address"
        }
      ],
      "name": "isApprovedForAll",
      "outputs": [
        {
          "internalType": "bool",
          "name": "",
          "type": "bool"
        }
      ],
      "stateMutability": "view",
      "type": "function"
    },
    {
      "inputs": [],
      "name": "mint",
      "outputs": [],
      "stateMutability": "nonpayable",
      "type": "function"
    },
    {
      "inputs": [],
      "name": "name",
      "outputs": [
        {
          "internalType": "string",
          "name": "",
          "type": "string"
        }
      ],
      "stateMutability": "view",
      "type": "function"
    },
    {
      "inputs": [],
      "name": "nextTokenId",
      "outputs": [
        {
          "internalType": "uint256",
          "name": "",
          "type": "uint256"
        }
      ],
      "stateMutability": "view",
      "type": "function"
    },
    {
      "inputs": [],
      "name": "owner",
      "outputs": [
        {
          "internalType": "address",
          "name": "",
          "type": "address"
        }
      ],
      "stateMutability": "view",
      "type": "function"
    },
    {
      "inputs": [
        {
          "internalType": "uint256",
          "name": "tokenId",
          "type": "uint256"
        }
      ],
      "name": "ownerOf",
      "outputs": [
        {
          "internalType": "address",
          "name": "",
          "type": "address"
        }
      ],
      "stateMutability": "view",
      "type": "function"
    },
    {
      "inputs": [],
      "name": "renounceOwnership",
      "outputs": [],
      "stateMutability": "nonpayable",
      "type": "function"
    },
    {
      "inputs": [
        {
          "internalType": "address",
          "name": "from",
          "type": "address"
        },
        {
          "internalType": "address",
          "name": "to",
          "type": "address"
        },
        {
          "internalType": "uint256",
          "name": "tokenId",
          "type": "uint256"
        }
      ],
      "name": "safeTransferFrom",
      "outputs": [],
      "stateMutability": "nonpayable",
      "type": "function"
    },
    {
      "inputs": [
        {
          "internalType": "address",
          "name": "from",
          "type": "address"
        },
        {
          "internalType": "address",
          "name": "to",
          "type": "address"
        },
        {
          "internalType": "uint256",
          "name": "tokenId",
          "type": "uint256"
        },
        {
          "internalType": "bytes",
          "name": "data",
          "type": "bytes"
        }
      ],
      "name": "safeTransferFrom",
      "outputs": [],
      "stateMutability": "nonpayable",
      "type": "function"
    },
    {
      "inputs": [
        {
          "internalType": "address",
          "name": "operator",
          "type": "address"
        },
        {
          "internalType": "bool",
          "name": "approved",
          "type": "bool"
        }
      ],
      "name": "setApprovalForAll",
      "outputs": [],
      "stateMutability": "nonpayable",
      "type": "function"
    },
    {
      "inputs": [
        {
          "internalType": "bytes4",
          "name": "interfaceId",
          "type": "bytes4"
        }
      ],
      "name": "supportsInterface",
      "outputs": [
        {
          "internalType": "bool",
          "name": "",
          "type": "bool"
        }
      ],
      "stateMutability": "view",
      "type": "function"
    },
    {
      "inputs": [],
      "name": "symbol",
      "outputs": [
        {
          "internalType": "string",
          "name": "",
          "type": "string"
        }
      ],
      "stateMutability": "view",
      "type": "function"
    },
    {
      "inputs": [
        {
          "internalType": "uint256",
          "name": "tokenId",
          "type": "uint256"
        }
      ],
      "name": "tokenURI",
      "outputs": [
        {
          "internalType": "string",
          "name": "",
          "type": "string"
        }
      ],
      "stateMutability": "view",
      "type": "function"
    },
    {
      "inputs": [
        {
          "internalType": "address",
          "name": "from",
          "type": "address"
        },
        {
          "internalType": "address",
          "name": "to",
          "type": "address"
        },
        {
          "internalType": "uint256",
          "name": "tokenId",
          "type": "uint256"
        }
      ],
      "name": "transferFrom",
      "outputs": [],
      "stateMutability": "nonpayable",
      "type": "function"
    },
    {
      "inputs": [
        {
          "internalType": "address",
          "name": "newOwner",
          "type": "address"
        }
      ],
      "name": "transferOwnership",
      "outputs": [],
      "stateMutability": "nonpayable",
      "type": "function"
    }
  ],
  "bytecode": "0x608060405234801561000f575f5ffd5b503360405180604001604052806009815260200168105b99d95b1bd3919560ba1b815250604051806040016040528060048152602001631053919560e21b815250815f908161005e9190610193565b50600161006b8282610193565b5050506001600160a01b03811661009b57604051631e4fbdf760e01b81525f600482015260240160405180910390fd5b6100a4816100aa565b5061024d565b600680546001600160a01b038381166001600160a01b0319831681179093556040519116919082907f8be0079c531659141344cd1fd0a4f28419497f9722a3daafe3b4186f6b6457e0905f90a35050565b634e487b7160e01b5f52604160045260245ffd5b600181811c9082168061012357607f821691505b60208210810361014157634e487b7160e01b5f52602260045260245ffd5b50919050565b601f82111561018e57805f5260205f20601f840160051c8101602085101561016c5750805b601f840160051c820191505b8181101561018b575f8155600101610178565b50505b505050565b81516001600160401b038111156101ac576101ac6100fb565b6101c0816101ba845461010f565b84610147565b6020601f8211600181146101f2575f83156101db5750848201515b5f19600385901b1c1916600184901b17845561018b565b5f84815260208120601f198516915b828110156102215787850151825560209485019460019092019101610201565b508482101561023e57868401515f19600387901b60f8161c191681555b50505050600190811b01905550565b61109c8061025a5f395ff3fe608060405234801561000f575f5ffd5b5060043610610111575f3560e01c8063715018a61161009e578063a22cb4651161006e578063a22cb4651461021e578063b88d4fde14610231578063c87b56dd14610244578063e985e9c514610257578063f2fde38b1461026a575f5ffd5b8063715018a6146101f457806375794a3c146101fc5780638da5cb5b1461020557806395d89b4114610216575f5ffd5b80631249c58b116100e45780631249c58b1461019257806323b872dd1461019a57806342842e0e146101ad5780636352211e146101c057806370a08231146101d3575f5ffd5b806301ffc9a71461011557806306fdde031461013d578063081812fc14610152578063095ea7b31461017d575b5f5ffd5b610128610123366004610d25565b61027d565b60405190151581526020015b60405180910390f35b6101456102ce565b6040516101349190610d6e565b610165610160366004610d80565b61035d565b6040516001600160a01b039091168152602001610134565b61019061018b366004610db2565b610384565b005b610190610393565b6101906101a8366004610dda565b6103b5565b6101906101bb366004610dda565b610443565b6101656101ce366004610d80565b610462565b6101e66101e1366004610e14565b61046c565b604051908152602001610134565b6101906104b1565b6101e660075481565b6006546001600160a01b0316610165565b6101456104c4565b61019061022c366004610e2d565b6104d3565b61019061023f366004610e7a565b6104de565b610145610252366004610d80565b6104f6565b610128610265366004610f57565b610567565b610190610278366004610e14565b610594565b5f6001600160e01b031982166380ac58cd60e01b14806102ad57506001600160e01b03198216635b5e139f60e01b145b806102c857506301ffc9a760e01b6001600160e01b03198316145b92915050565b60605f80546102dc90610f88565b80601f016020809104026020016040519081016040528092919081815260200182805461030890610f88565b80156103535780601f1061032a57610100808354040283529160200191610353565b820191905f5260205f20905b81548152906001019060200180831161033657829003601f168201915b5050505050905090565b5f610367826105d1565b505f828152600460205260409020546001600160a01b03166102c8565b61038f828233610609565b5050565b61039f33600754610616565b60078054905f6103ae83610fc0565b9190505550565b6001600160a01b0382166103e357604051633250574960e11b81525f60048201526024015b60405180910390fd5b5f6103ef83833361062f565b9050836001600160a01b0316816001600160a01b03161461043d576040516364283d7b60e01b81526001600160a01b03808616600483015260248201849052821660448201526064016103da565b50505050565b61045d83838360405180602001604052805f8152506104de565b505050565b5f6102c8826105d1565b5f6001600160a01b038216610496576040516322718ad960e21b81525f60048201526024016103da565b506001600160a01b03165f9081526003602052604090205490565b6104b9610721565b6104c25f61074e565b565b6060600180546102dc90610f88565b61038f33838361079f565b6104e98484846103b5565b61043d338585858561083d565b6060610501826105d1565b505f61051760408051602081019091525f815290565b90505f8151116105355760405180602001604052805f815250610560565b8061053f84610965565b604051602001610550929190610ffb565b6040516020818303038152906040525b9392505050565b6001600160a01b039182165f90815260056020908152604080832093909416825291909152205460ff1690565b61059c610721565b6001600160a01b0381166105c557604051631e4fbdf760e01b81525f60048201526024016103da565b6105ce8161074e565b50565b5f818152600260205260408120546001600160a01b0316806102c857604051637e27328960e01b8152600481018490526024016103da565b61045d83838360016109f5565b61038f828260405180602001604052805f815250610af9565b5f828152600260205260408120546001600160a01b039081169083161561065b5761065b818486610b10565b6001600160a01b03811615610695576106765f855f5f6109f5565b6001600160a01b0381165f90815260036020526040902080545f190190555b6001600160a01b038516156106c3576001600160a01b0385165f908152600360205260409020805460010190555b5f8481526002602052604080822080546001600160a01b0319166001600160a01b0389811691821790925591518793918516917fddf252ad1be2c89b69c2b068fc378daa952ba7f163c4a11628f55a4df523b3ef91a4949350505050565b6006546001600160a01b031633146104c25760405163118cdaa760e01b81523360048201526024016103da565b600680546001600160a01b038381166001600160a01b0319831681179093556040519116919082907f8be0079c531659141344cd1fd0a4f28419497f9722a3daafe3b4186f6b6457e0905f90a35050565b6001600160a01b0382166107d157604051630b61174360e31b81526001600160a01b03831660048201526024016103da565b6001600160a01b038381165f81815260056020908152604080832094871680845294825291829020805460ff191686151590811790915591519182527f17307eab39ab6107e8899845ad3d59bd9653f200f220920489ca2b5937696c31910160405180910390a3505050565b6001600160a01b0383163b1561095e57604051630a85bd0160e11b81526001600160a01b0384169063150b7a029061087f90889088908790879060040161100f565b6020604051808303815f875af19250505080156108b9575060408051601f3d908101601f191682019092526108b69181019061104b565b60015b610920573d8080156108e6576040519150601f19603f3d011682016040523d82523d5f602084013e6108eb565b606091505b5080515f0361091857604051633250574960e11b81526001600160a01b03851660048201526024016103da565b805160208201fd5b6001600160e01b03198116630a85bd0160e11b1461095c57604051633250574960e11b81526001600160a01b03851660048201526024016103da565b505b5050505050565b60605f61097183610b74565b60010190505f8167ffffffffffffffff81111561099057610990610e66565b6040519080825280601f01601f1916602001820160405280156109ba576020820181803683370190505b5090508181016020015b5f19016f181899199a1a9b1b9c1cb0b131b232b360811b600a86061a8153600a85049450846109c457509392505050565b8080610a0957506001600160a01b03821615155b15610aca575f610a18846105d1565b90506001600160a01b03831615801590610a445750826001600160a01b0316816001600160a01b031614155b8015610a575750610a558184610567565b155b15610a805760405163a9fbf51f60e01b81526001600160a01b03841660048201526024016103da565b8115610ac85783856001600160a01b0316826001600160a01b03167f8c5be1e5ebec7d5bd14f71427d1e84f3dd0314c0f7b2291e5b200ac8c7c3b92560405160405180910390a45b505b50505f90815260046020526040902080546001600160a01b0319166001600160a01b0392909216919091179055565b610b038383610c4b565b61045d335f85858561083d565b610b1b838383610cac565b61045d576001600160a01b038316610b4957604051637e27328960e01b8152600481018290526024016103da565b60405163177e802f60e01b81526001600160a01b0383166004820152602481018290526044016103da565b5f8072184f03e93ff9f4daa797ed6e38ed64bf6a1f0160401b8310610bb25772184f03e93ff9f4daa797ed6e38ed64bf6a1f0160401b830492506040015b6d04ee2d6d415b85acef81000000008310610bde576d04ee2d6d415b85acef8100000000830492506020015b662386f26fc100008310610bfc57662386f26fc10000830492506010015b6305f5e1008310610c14576305f5e100830492506008015b6127108310610c2857612710830492506004015b60648310610c3a576064830492506002015b600a83106102c85760010192915050565b6001600160a01b038216610c7457604051633250574960e11b81525f60048201526024016103da565b5f610c8083835f61062f565b90506001600160a01b0381161561045d576040516339e3563760e11b81525f60048201526024016103da565b5f6001600160a01b03831615801590610d085750826001600160a01b0316846001600160a01b03161480610ce55750610ce58484610567565b80610d0857505f828152600460205260409020546001600160a01b038481169116145b949350505050565b6001600160e01b0319811681146105ce575f5ffd5b5f60208284031215610d35575f5ffd5b813561056081610d10565b5f81518084528060208401602086015e5f602082860101526020601f19601f83011685010191505092915050565b602081525f6105606020830184610d40565b5f60208284031215610d90575f5ffd5b5035919050565b80356001600160a01b0381168114610dad575f5ffd5b919050565b5f5f60408385031215610dc3575f5ffd5b610dcc83610d97565b946020939093013593505050565b5f5f5f60608486031215610dec575f5ffd5b610df584610d97565b9250610e0360208501610d97565b929592945050506040919091013590565b5f60208284031215610e24575f5ffd5b61056082610d97565b5f5f60408385031215610e3e575f5ffd5b610e4783610d97565b915060208301358015158114610e5b575f5ffd5b809150509250929050565b634e487b7160e01b5f52604160045260245ffd5b5f5f5f5f60808587031215610e8d575f5ffd5b610e9685610d97565b9350610ea460208601610d97565b925060408501359150606085013567ffffffffffffffff811115610ec6575f5ffd5b8501601f81018713610ed6575f5ffd5b803567ffffffffffffffff811115610ef057610ef0610e66565b604051601f8201601f19908116603f0116810167ffffffffffffffff81118282101715610f1f57610f1f610e66565b604052818152828201602001891015610f36575f5ffd5b816020840160208301375f6020838301015280935050505092959194509250565b5f5f60408385031215610f68575f5ffd5b610f7183610d97565b9150610f7f60208401610d97565b90509250929050565b600181811c90821680610f9c57607f821691505b602082108103610fba57634e487b7160e01b5f52602260045260245ffd5b50919050565b5f60018201610fdd57634e487b7160e01b5f52601160045260245ffd5b5060010190565b5f81518060208401855e5f93019283525090919050565b5f610d086110098386610fe4565b84610fe4565b6001600160a01b03858116825284166020820152604081018390526080606082018190525f9061104190830184610d40565b9695505050505050565b5f6020828403121561105b575f5ffd5b815161056081610d1056fea2646970667358221220b3dd1d8b71fad7676d44fe6ea26743449338717666663a58f55b31073bdc040164736f6c634300081c0033",
  "linkReferences": {},
  "deployedLinkReferences": {},
  "immutableReferences": {},
  "inputSourceName": "project/contracts/token.sol",
  "buildInfoId": "solc-0_8_28-957c2e6311d6c9cd921f4ee0f0b6f2153cd71b58"
}